{
  "contractName": "Electioneering",
  "abi": [
    {
      "constant": true,
      "inputs": [
        {
          "internalType": "uint256",
          "name": "",
          "type": "uint256"
        }
      ],
      "name": "candidates",
      "outputs": [
        {
          "internalType": "string",
          "name": "name",
          "type": "string"
        },
        {
          "internalType": "string",
          "name": "bio",
          "type": "string"
        },
        {
          "internalType": "string",
          "name": "agenda",
          "type": "string"
        },
        {
          "internalType": "uint256",
          "name": "votes",
          "type": "uint256"
        }
      ],
      "payable": false,
      "stateMutability": "view",
      "type": "function"
    },
    {
      "constant": true,
      "inputs": [],
      "name": "owner",
      "outputs": [
        {
          "internalType": "address",
          "name": "",
          "type": "address"
        }
      ],
      "payable": false,
      "stateMutability": "view",
      "type": "function"
    },
    {
      "constant": true,
      "inputs": [],
      "name": "totalCandidates",
      "outputs": [
        {
          "internalType": "uint256",
          "name": "",
          "type": "uint256"
        }
      ],
      "payable": false,
      "stateMutability": "view",
      "type": "function"
    },
    {
      "constant": true,
      "inputs": [],
      "name": "totalVoters",
      "outputs": [
        {
          "internalType": "uint256",
          "name": "",
          "type": "uint256"
        }
      ],
      "payable": false,
      "stateMutability": "view",
      "type": "function"
    },
    {
      "constant": true,
      "inputs": [],
      "name": "totalVotes",
      "outputs": [
        {
          "internalType": "uint256",
          "name": "",
          "type": "uint256"
        }
      ],
      "payable": false,
      "stateMutability": "view",
      "type": "function"
    },
    {
      "constant": true,
      "inputs": [
        {
          "internalType": "address",
          "name": "",
          "type": "address"
        }
      ],
      "name": "voters",
      "outputs": [
        {
          "internalType": "bool",
          "name": "hasVoted",
          "type": "bool"
        },
        {
          "internalType": "bool",
          "name": "isAuthorized",
          "type": "bool"
        }
      ],
      "payable": false,
      "stateMutability": "view",
      "type": "function"
    },
    {
      "constant": false,
      "inputs": [
        {
          "internalType": "string",
          "name": "name",
          "type": "string"
        },
        {
          "internalType": "string",
          "name": "bio",
          "type": "string"
        },
        {
          "internalType": "string",
          "name": "agenda",
          "type": "string"
        }
      ],
      "name": "registerCandidate",
      "outputs": [
        {
          "internalType": "bool",
          "name": "",
          "type": "bool"
        }
      ],
      "payable": false,
      "stateMutability": "nonpayable",
      "type": "function"
    },
    {
      "constant": false,
      "inputs": [
        {
          "internalType": "address",
          "name": "voter",
          "type": "address"
        }
      ],
      "name": "authorizeVoter",
      "outputs": [
        {
          "internalType": "bool",
          "name": "",
          "type": "bool"
        }
      ],
      "payable": false,
      "stateMutability": "nonpayable",
      "type": "function"
    },
    {
      "constant": false,
      "inputs": [
        {
          "internalType": "address",
          "name": "voter",
          "type": "address"
        },
        {
          "internalType": "uint256",
          "name": "candidateId",
          "type": "uint256"
        }
      ],
      "name": "castVote",
      "outputs": [
        {
          "internalType": "bool",
          "name": "",
          "type": "bool"
        }
      ],
      "payable": false,
      "stateMutability": "nonpayable",
      "type": "function"
    }
  ],
  "bytecode": "0x6080604052336000806101000a81548173ffffffffffffffffffffffffffffffffffffffff021916908373ffffffffffffffffffffffffffffffffffffffff16021790555060006001556000600255600060035534801561005f57600080fd5b50610eba8061006f6000396000f3fe608060405234801561001057600080fd5b50600436106100935760003560e01c80635f5300ff116100665780635f5300ff1461045b5780638da5cb5b14610479578063a3ec138d146104c3578063fd47b3681461052a578063ff91bb451461058657610093565b80630d15fd77146100985780633477ee2e146100b657806335c3c8761461023c5780633866965c1461043d575b600080fd5b6100a06105ec565b6040518082815260200191505060405180910390f35b6100e2600480360360208110156100cc57600080fd5b81019080803590602001909291905050506105f2565b60405180806020018060200180602001858152602001848103845288818151815260200191508051906020019080838360005b83811015610130578082015181840152602081019050610115565b50505050905090810190601f16801561015d5780820380516001836020036101000a031916815260200191505b50848103835287818151815260200191508051906020019080838360005b8381101561019657808201518184015260208101905061017b565b50505050905090810190601f1680156101c35780820380516001836020036101000a031916815260200191505b50848103825286818151815260200191508051906020019080838360005b838110156101fc5780820151818401526020810190506101e1565b50505050905090810190601f1680156102295780820380516001836020036101000a031916815260200191505b5097505050505050505060405180910390f35b6104236004803603606081101561025257600080fd5b810190808035906020019064010000000081111561026f57600080fd5b82018360208201111561028157600080fd5b803590602001918460018302840111640100000000831117156102a357600080fd5b91908080601f016020809104026020016040519081016040528093929190818152602001838380828437600081840152601f19601f8201169050808301925050505050505091929192908035906020019064010000000081111561030657600080fd5b82018360208201111561031857600080fd5b8035906020019184600183028401116401000000008311171561033a57600080fd5b91908080601f016020809104026020016040519081016040528093929190818152602001838380828437600081840152601f19601f8201169050808301925050505050505091929192908035906020019064010000000081111561039d57600080fd5b8201836020820111156103af57600080fd5b803590602001918460018302840111640100000000831117156103d157600080fd5b91908080601f016020809104026020016040519081016040528093929190818152602001838380828437600081840152601f19601f8201169050808301925050505050505091929192905050506107ea565b604051808215151515815260200191505060405180910390f35b610445610948565b6040518082815260200191505060405180910390f35b61046361094e565b6040518082815260200191505060405180910390f35b610481610954565b604051808273ffffffffffffffffffffffffffffffffffffffff1673ffffffffffffffffffffffffffffffffffffffff16815260200191505060405180910390f35b610505600480360360208110156104d957600080fd5b81019080803573ffffffffffffffffffffffffffffffffffffffff169060200190929190505050610979565b6040518083151515158152602001821515151581526020019250505060405180910390f35b61056c6004803603602081101561054057600080fd5b81019080803573ffffffffffffffffffffffffffffffffffffffff1690602001909291905050506109b7565b604051808215151515815260200191505060405180910390f35b6105d26004803603604081101561059c57600080fd5b81019080803573ffffffffffffffffffffffffffffffffffffffff16906020019092919080359060200190929190505050610b15565b604051808215151515815260200191505060405180910390f35b60015481565b6005602052806000526040600020600091509050806000018054600181600116156101000203166002900480601f01602080910402602001604051908101604052809291908181526020018280546001816001161561010002031660029004801561069e5780601f106106735761010080835404028352916020019161069e565b820191906000526020600020905b81548152906001019060200180831161068157829003601f168201915b505050505090806001018054600181600116156101000203166002900480601f01602080910402602001604051908101604052809291908181526020018280546001816001161561010002031660029004801561073c5780601f106107115761010080835404028352916020019161073c565b820191906000526020600020905b81548152906001019060200180831161071f57829003601f168201915b505050505090806002018054600181600116156101000203166002900480601f0160208091040260200160405190810160405280929190818152602001828054600181600116156101000203166002900480156107da5780601f106107af576101008083540402835291602001916107da565b820191906000526020600020905b8154815290600101906020018083116107bd57829003601f168201915b5050505050908060030154905084565b60008060009054906101000a900473ffffffffffffffffffffffffffffffffffffffff1673ffffffffffffffffffffffffffffffffffffffff163373ffffffffffffffffffffffffffffffffffffffff1614610891576040517f08c379a0000000000000000000000000000000000000000000000000000000008152600401808060200182810382526033815260200180610e536033913960400191505060405180910390fd5b6040518060800160405280858152602001848152602001838152602001600081525060056000600354815260200190815260200160002060008201518160000190805190602001906108e4929190610dad565b506020820151816001019080519060200190610901929190610dad565b50604082015181600201908051906020019061091e929190610dad565b50606082015181600301559050506001600360008282540192505081905550600190509392505050565b60035481565b60025481565b6000809054906101000a900473ffffffffffffffffffffffffffffffffffffffff1681565b60046020528060005260406000206000915090508060000160009054906101000a900460ff16908060000160019054906101000a900460ff16905082565b60008060009054906101000a900473ffffffffffffffffffffffffffffffffffffffff1673ffffffffffffffffffffffffffffffffffffffff163373ffffffffffffffffffffffffffffffffffffffff1614610a5e576040517f08c379a0000000000000000000000000000000000000000000000000000000008152600401808060200182810382526033815260200180610e536033913960400191505060405180910390fd5b604051806040016040528060001515815260200160011515815250600460008473ffffffffffffffffffffffffffffffffffffffff1673ffffffffffffffffffffffffffffffffffffffff16815260200190815260200160002060008201518160000160006101000a81548160ff02191690831515021790555060208201518160000160016101000a81548160ff021916908315150217905550905050600160026000828254019250508190555060019050919050565b6000600460008473ffffffffffffffffffffffffffffffffffffffff1673ffffffffffffffffffffffffffffffffffffffff16815260200190815260200160002060000160019054906101000a900460ff16610bd9576040517f08c379a000000000000000000000000000000000000000000000000000000000815260040180806020018281038252600c8152602001807f556e617574686f72697a6564000000000000000000000000000000000000000081525060200191505060405180910390fd5b600460008473ffffffffffffffffffffffffffffffffffffffff1673ffffffffffffffffffffffffffffffffffffffff16815260200190815260200160002060000160009054906101000a900460ff1615610c9c576040517f08c379a000000000000000000000000000000000000000000000000000000000815260040180806020018281038252600d8152602001807f416c726561647920566f7465640000000000000000000000000000000000000081525060200191505060405180910390fd5b6003548210610d13576040517f08c379a00000000000000000000000000000000000000000000000000000000081526004018080602001828103825260118152602001807f556e6b6e6f776e2043616e64696461746500000000000000000000000000000081525060200191505060405180910390fd5b6001600460008573ffffffffffffffffffffffffffffffffffffffff1673ffffffffffffffffffffffffffffffffffffffff16815260200190815260200160002060000160006101000a81548160ff02191690831515021790555060016005600084815260200190815260200160002060030160008282540192505081905550600180600082825401925050819055506001905092915050565b828054600181600116156101000203166002900490600052602060002090601f016020900481019282601f10610dee57805160ff1916838001178555610e1c565b82800160010185558215610e1c579182015b82811115610e1b578251825591602001919060010190610e00565b5b509050610e299190610e2d565b5090565b610e4f91905b80821115610e4b576000816000905550600101610e33565b5090565b9056fe546869732066756e6374696f6e206973207265737472696374656420746f2074686520636f6e74726163742773206f776e6572a265627a7a72315820c706e4762c739cecf79fd0ae98cfa8c8f26f8ec07410861f682f1ea2c2b279fd64736f6c63430005100032",
  "source": "pragma solidity >=0.4.22 <0.8.0;\r\n\r\ncontract Electioneering {\r\n    address public owner = msg.sender;\r\n    uint public totalVotes = 0;\r\n    uint public totalVoters = 0;\r\n    uint public totalCandidates = 0;\r\n\r\n    struct Voter\r\n    {\r\n        bool hasVoted;\r\n        bool isAuthorized;\r\n    }\r\n\r\n    struct Candidate\r\n    {\r\n        string name;\r\n        string bio;\r\n        string agenda;\r\n        uint votes;\r\n    }\r\n\r\n    mapping(address => Voter) public voters;\r\n    mapping(uint => Candidate) public candidates;\r\n\r\n    modifier onlyCreator() \r\n    {\r\n        require(msg.sender == owner,  \"This function is restricted to the contract's owner\");\r\n        _;\r\n    }\r\n    \r\n  function registerCandidate(string memory name, string memory bio, string memory agenda) onlyCreator public returns(bool)\r\n  {\r\n    candidates[totalCandidates] = Candidate(name, bio, agenda, 0);\r\n    totalCandidates += 1;\r\n    return true;\r\n  }\r\n  \r\n  function authorizeVoter(address voter) onlyCreator public returns(bool)\r\n  {\r\n      voters[voter] = Voter(false, true);\r\n      totalVoters += 1;\r\n      return true;\r\n  }\r\n\r\n  function castVote(address voter, uint candidateId) public returns(bool)\r\n  {\r\n      require(voters[voter].isAuthorized, \"Unauthorized\");\r\n      require(!voters[voter].hasVoted, \"Already Voted\");\r\n      require(candidateId < totalCandidates, \"Unknown Candidate\");\r\n      voters[voter].hasVoted = true;\r\n      candidates[candidateId].votes += 1;\r\n      totalVotes += 1;\r\n      return true;\r\n  }\r\n}",
  "sourcePath": "C:/Users/Tony/Repository/Test/Personal/BlockChain/contracts/Electioneering.sol",
  "compiler": {
    "name": "solc",
    "version": "0.5.16+commit.9c3226ce.Emscripten.clang"
  },
  "schemaVersion": "3.4.1",
  "updatedAt": "2021-05-12T22:42:45.876Z",
  "networkType": "ethereum",
  "devdoc": {
    "methods": {}
  },
  "userdoc": {
    "methods": {}
  }
}